{
  "contractName": "TimeLockWalletFactory",
  "abi": [
    {
      "inputs": [
        {
          "internalType": "address",
          "name": "_masterContract",
          "type": "address"
        }
      ],
      "stateMutability": "nonpayable",
      "type": "constructor"
    },
    {
      "anonymous": false,
      "inputs": [
        {
          "indexed": true,
          "internalType": "address",
          "name": "wallet",
          "type": "address"
        },
        {
          "indexed": true,
          "internalType": "address",
          "name": "beneficiary",
          "type": "address"
        },
        {
          "indexed": false,
          "internalType": "address",
          "name": "creator",
          "type": "address"
        },
        {
          "indexed": false,
          "internalType": "uint256",
          "name": "releaseTime",
          "type": "uint256"
        },
        {
          "indexed": false,
          "internalType": "uint256",
          "name": "createdAt",
          "type": "uint256"
        },
        {
          "indexed": false,
          "internalType": "uint256",
          "name": "amount",
          "type": "uint256"
        }
      ],
      "name": "Created",
      "type": "event"
    },
    {
      "inputs": [],
      "name": "masterContract",
      "outputs": [
        {
          "internalType": "address",
          "name": "",
          "type": "address"
        }
      ],
      "stateMutability": "view",
      "type": "function",
      "constant": true
    },
    {
      "inputs": [],
      "name": "newWallet",
      "outputs": [
        {
          "internalType": "contract TimeLockWallet",
          "name": "",
          "type": "address"
        }
      ],
      "stateMutability": "view",
      "type": "function",
      "constant": true
    },
    {
      "inputs": [
        {
          "internalType": "contract IERC20",
          "name": "token",
          "type": "address"
        },
        {
          "internalType": "address",
          "name": "beneficiary",
          "type": "address"
        },
        {
          "internalType": "uint256",
          "name": "releaseTime",
          "type": "uint256"
        }
      ],
      "name": "createNewWallet",
      "outputs": [
        {
          "internalType": "bool",
          "name": "",
          "type": "bool"
        }
      ],
      "stateMutability": "payable",
      "type": "function",
      "payable": true
    },
    {
      "inputs": [
        {
          "internalType": "address",
          "name": "owner",
          "type": "address"
        }
      ],
      "name": "getWalletList",
      "outputs": [
        {
          "internalType": "address[]",
          "name": "",
          "type": "address[]"
        }
      ],
      "stateMutability": "view",
      "type": "function",
      "constant": true
    }
  ],
  "bytecode": "0x608060405234801561001057600080fd5b506040516104023803806104028339818101604052602081101561003357600080fd5b5051600280546001600160a01b0319166001600160a01b0390921691909117905561039f806100636000396000f3fe60806040526004361061003f5760003560e01c80634a8671f1146100445780634a883746146100755780635e9beda6146100bf578063cd446e2214610142575b600080fd5b34801561005057600080fd5b50610059610157565b604080516001600160a01b039092168252519081900360200190f35b6100ab6004803603606081101561008b57600080fd5b506001600160a01b03813581169160208101359091169060400135610166565b604080519115158252519081900360200190f35b3480156100cb57600080fd5b506100f2600480360360208110156100e257600080fd5b50356001600160a01b0316610292565b60408051602080825283518183015283519192839290830191858101910280838360005b8381101561012e578181015183820152602001610116565b505050509050019250505060405180910390f35b34801561014e57600080fd5b50610059610308565b6000546001600160a01b031681565b6002546000908190610180906001600160a01b0316610317565b60408051630145e33360e01b81526001600160a01b038881166004830152878116602483015233604483015242606483015260848201879052915192935090831691630145e3339160a48082019260009290919082900301818387803b1580156101e957600080fd5b505af11580156101fd573d6000803e3d6000fd5b5050506001600160a01b0380861660008181526001602081815260408084208054938401815584529281902090910180549487166001600160a01b0319909516851790558151338152908101889052428183015234606082015290519193507f14d5db8c1f746c7adcbcd13cf8945dd2ac6ad58be52380b8c4933c876f76e1bf919081900360800190a3506001949350505050565b6001600160a01b0381166000908152600160209081526040918290208054835181840281018401909452808452606093928301828280156102fc57602002820191906000526020600020905b81546001600160a01b031681526001909101906020018083116102de575b50505050509050919050565b6002546001600160a01b031681565b6000808260601b9050604051733d602d80600a3d3981f3363d3d373d3d3d363d7360601b81528160148201526e5af43d82803e903d91602b57fd5bf360881b60288201526037816000f094935050505056fea264697066735822122030bce7d012410dc849d7327a691538147438d1a6d4bb83dae7e37de6585bc47964736f6c634300060c0033",
  "immutableReferences": {},
  "source": "pragma solidity ^0.6.0;\r\n\r\nimport \"./TimeLockWallet.sol\";\r\nimport \"./CloneFactory.sol\";\r\n\r\ncontract TimeLockWalletFactory is CloneFactory {\r\n    TimeLockWallet public newWallet;\r\n\r\n    mapping(address => address[]) wallets;\r\n    address public masterContract;\r\n\r\n    event Created(\r\n        address indexed wallet,\r\n        address indexed beneficiary,\r\n        address creator,\r\n        uint256 releaseTime,\r\n        uint256 createdAt,\r\n        uint256 amount\r\n    );\r\n\r\n    constructor(address _masterContract) public {\r\n        masterContract = _masterContract;\r\n    }\r\n\r\n    function createNewWallet(\r\n        IERC20 token,\r\n        address beneficiary,\r\n        uint256 releaseTime\r\n    ) public payable returns (bool) {\r\n        TimeLockWallet timeLockWallet =\r\n            TimeLockWallet(createClone(masterContract));\r\n\r\n        timeLockWallet.init(\r\n            token,\r\n            beneficiary,\r\n            msg.sender,\r\n            block.timestamp,\r\n            releaseTime\r\n        );\r\n\r\n        wallets[beneficiary].push(address(timeLockWallet));\r\n\r\n        emit Created(\r\n            address(timeLockWallet),\r\n            beneficiary,\r\n            msg.sender,\r\n            releaseTime,\r\n            block.timestamp,\r\n            msg.value\r\n        );\r\n        return true;\r\n    }\r\n\r\n    function getWalletList(address owner)\r\n        public\r\n        view\r\n        returns (address[] memory)\r\n    {\r\n        return wallets[owner];\r\n    }\r\n}\r\n",
  "sourcePath": "C:\\Users\\Admin\\Documents\\Blockchain\\time-lock-eth-wallet\\contracts\\TimeLockWalletFactory.sol",
  "compiler": {
    "name": "solc",
    "version": "0.6.12+commit.27d51765.Emscripten.clang"
  },
  "schemaVersion": "3.4.16",
  "updatedAt": "2025-06-14T19:34:40.085Z",
  "networkType": "ethereum",
  "devdoc": {
    "kind": "dev",
    "methods": {},
    "version": 1
  },
  "userdoc": {
    "kind": "user",
    "methods": {},
    "version": 1
  }
}