{
  "contractName": "TimeLockWallet",
  "abi": [
    {
      "inputs": [
        {
          "internalType": "contract IERC20",
          "name": "token_",
          "type": "address"
        },
        {
          "internalType": "address",
          "name": "beneficiary_",
          "type": "address"
        },
        {
          "internalType": "address",
          "name": "creator_",
          "type": "address"
        },
        {
          "internalType": "uint256",
          "name": "createdTime_",
          "type": "uint256"
        },
        {
          "internalType": "uint256",
          "name": "releaseTime_",
          "type": "uint256"
        }
      ],
      "name": "init",
      "outputs": [],
      "stateMutability": "nonpayable",
      "type": "function"
    },
    {
      "inputs": [],
      "name": "token",
      "outputs": [
        {
          "internalType": "contract IERC20",
          "name": "",
          "type": "address"
        }
      ],
      "stateMutability": "view",
      "type": "function",
      "constant": true
    },
    {
      "inputs": [],
      "name": "beneficiary",
      "outputs": [
        {
          "internalType": "address",
          "name": "",
          "type": "address"
        }
      ],
      "stateMutability": "view",
      "type": "function",
      "constant": true
    },
    {
      "inputs": [],
      "name": "creator",
      "outputs": [
        {
          "internalType": "address",
          "name": "",
          "type": "address"
        }
      ],
      "stateMutability": "view",
      "type": "function",
      "constant": true
    },
    {
      "inputs": [],
      "name": "createdTime",
      "outputs": [
        {
          "internalType": "uint256",
          "name": "",
          "type": "uint256"
        }
      ],
      "stateMutability": "view",
      "type": "function",
      "constant": true
    },
    {
      "inputs": [],
      "name": "releaseTime",
      "outputs": [
        {
          "internalType": "uint256",
          "name": "",
          "type": "uint256"
        }
      ],
      "stateMutability": "view",
      "type": "function",
      "constant": true
    },
    {
      "inputs": [
        {
          "internalType": "uint256",
          "name": "amount",
          "type": "uint256"
        }
      ],
      "name": "depositTokens",
      "outputs": [],
      "stateMutability": "nonpayable",
      "type": "function"
    },
    {
      "inputs": [],
      "name": "releaseToken",
      "outputs": [],
      "stateMutability": "nonpayable",
      "type": "function"
    },
    {
      "inputs": [],
      "name": "depositEther",
      "outputs": [],
      "stateMutability": "payable",
      "type": "function",
      "payable": true
    },
    {
      "inputs": [],
      "name": "getEtherBalance",
      "outputs": [
        {
          "internalType": "uint256",
          "name": "",
          "type": "uint256"
        }
      ],
      "stateMutability": "view",
      "type": "function",
      "constant": true
    },
    {
      "inputs": [],
      "name": "releaseEther",
      "outputs": [],
      "stateMutability": "nonpayable",
      "type": "function"
    },
    {
      "inputs": [],
      "name": "getWalletDetails",
      "outputs": [
        {
          "internalType": "address",
          "name": "",
          "type": "address"
        },
        {
          "internalType": "address",
          "name": "",
          "type": "address"
        },
        {
          "internalType": "uint256",
          "name": "",
          "type": "uint256"
        },
        {
          "internalType": "uint256",
          "name": "",
          "type": "uint256"
        },
        {
          "internalType": "uint256",
          "name": "",
          "type": "uint256"
        },
        {
          "internalType": "uint256",
          "name": "",
          "type": "uint256"
        }
      ],
      "stateMutability": "view",
      "type": "function",
      "constant": true
    }
  ],
  "bytecode": "0x608060405234801561001057600080fd5b50610c85806100206000396000f3fe6080604052600436106100a75760003560e01c8063b2f4bdb011610064578063b2f4bdb0146101b4578063b91d4001146101db578063dd49756e146101f0578063ea46193e1461021a578063ec715a311461022f578063fc0c546a14610244576100a7565b80630145e333146100ac57806302d05d3f146100fd5780631b4d15ae1461012e57806338af3eed14610143578063580da3601461015857806398ea5fca146101ac575b600080fd5b3480156100b857600080fd5b506100fb600480360360a08110156100cf57600080fd5b506001600160a01b03813581169160208101358216916040820135169060608101359060800135610259565b005b34801561010957600080fd5b506101126102e0565b604080516001600160a01b039092168252519081900360200190f35b34801561013a57600080fd5b506100fb6102ef565b34801561014f57600080fd5b506101126103c8565b34801561016457600080fd5b5061016d6103d7565b604080516001600160a01b039788168152959096166020860152848601939093526060840191909152608083015260a082015290519081900360c00190f35b6100fb610494565b3480156101c057600080fd5b506101c9610496565b60408051918252519081900360200190f35b3480156101e757600080fd5b506101c961049c565b3480156101fc57600080fd5b506100fb6004803603602081101561021357600080fd5b50356104a2565b34801561022657600080fd5b506101c9610621565b34801561023b57600080fd5b506100fb610626565b34801561025057600080fd5b50610112610767565b4281116102975760405162461bcd60e51b8152600401808060200182810382526032815260200180610bfb6032913960400191505060405180910390fd5b600080546001600160a01b03199081166001600160a01b039788161790915560018054821695871695909517909455600380549094169290941691909117909155600455600255565b6003546001600160a01b031690565b6001546001600160a01b0316331461030657600080fd5b61030e61049c565b42101561034c5760405162461bcd60e51b8152600401808060200182810382526023815260200180610b616023913960400191505060405180910390fd5b303180610397576040805162461bcd60e51b81526020600482015260146024820152734e6f2045746865727320746f2072656c6561736560601b604482015290519081900360640190fd5b604051339082156108fc029083906000818181858888f193505050501580156103c4573d6000803e3d6000fd5b5050565b6001546001600160a01b031690565b600154600354600254600454600093849384938493849384936001600160a01b03918216939116913031610409610767565b6001600160a01b03166370a08231306040518263ffffffff1660e01b815260040180826001600160a01b0316815260200191505060206040518083038186803b15801561045557600080fd5b505afa158015610469573d6000803e3d6000fd5b505050506040513d602081101561047f57600080fd5b5051949b939a50919850965094509092509050565b565b60045490565b60025490565b6000546001600160a01b03166104ff576040805162461bcd60e51b815260206004820152601d60248201527f54696d654c6f636b57616c6c65743a20746f6b656e206e6f7420736574000000604482015290519081900360640190fd5b6000811161053e5760405162461bcd60e51b8152600401808060200182810382526030815260200180610b316030913960400191505060405180910390fd5b80610547610767565b60408051636eb1769f60e11b815233600482015230602482015290516001600160a01b03929092169163dd62ed3e91604480820192602092909190829003018186803b15801561059657600080fd5b505afa1580156105aa573d6000803e3d6000fd5b505050506040513d60208110156105c057600080fd5b505110156105ff5760405162461bcd60e51b8152600401808060200182810382526027815260200180610baa6027913960400191505060405180910390fd5b61061e33308361060d610767565b6001600160a01b0316929190610776565b50565b303190565b6001546001600160a01b0316331461063d57600080fd5b61064561049c565b4210156106835760405162461bcd60e51b8152600401808060200182810382526032815260200180610aff6032913960400191505060405180910390fd5b600061068d610767565b6001600160a01b03166370a08231306040518263ffffffff1660e01b815260040180826001600160a01b0316815260200191505060206040518083038186803b1580156106d957600080fd5b505afa1580156106ed573d6000803e3d6000fd5b505050506040513d602081101561070357600080fd5b50519050806107435760405162461bcd60e51b8152600401808060200182810382526023815260200180610c2d6023913960400191505060405180910390fd5b61061e61074e6103c8565b82610757610767565b6001600160a01b031691906107d6565b6000546001600160a01b031690565b604080516001600160a01b0380861660248301528416604482015260648082018490528251808303909101815260849091019091526020810180516001600160e01b03166323b872dd60e01b1790526107d090859061082d565b50505050565b604080516001600160a01b038416602482015260448082018490528251808303909101815260649091019091526020810180516001600160e01b031663a9059cbb60e01b17905261082890849061082d565b505050565b6060610882826040518060400160405280602081526020017f5361666545524332303a206c6f772d6c6576656c2063616c6c206661696c6564815250856001600160a01b03166108de9092919063ffffffff16565b805190915015610828578080602001905160208110156108a157600080fd5b50516108285760405162461bcd60e51b815260040180806020018281038252602a815260200180610bd1602a913960400191505060405180910390fd5b60606108ed84846000856108f7565b90505b9392505050565b606030318311156109395760405162461bcd60e51b8152600401808060200182810382526026815260200180610b846026913960400191505060405180910390fd5b61094285610a54565b610993576040805162461bcd60e51b815260206004820152601d60248201527f416464726573733a2063616c6c20746f206e6f6e2d636f6e7472616374000000604482015290519081900360640190fd5b60006060866001600160a01b031685876040518082805190602001908083835b602083106109d25780518252601f1990920191602091820191016109b3565b6001836020036101000a03801982511681845116808217855250505050505090500191505060006040518083038185875af1925050503d8060008114610a34576040519150601f19603f3d011682016040523d82523d6000602084013e610a39565b606091505b5091509150610a49828286610a5a565b979650505050505050565b3b151590565b60608315610a695750816108f0565b825115610a795782518084602001fd5b8160405162461bcd60e51b81526004018080602001828103825283818151815260200191508051906020019080838360005b83811015610ac3578181015183820152602001610aab565b50505050905090810190601f168015610af05780820380516001836020036101000a031916815260200191505b509250505060405180910390fdfe546f6b656e54696d656c6f636b3a2063757272656e742074696d65206973206265666f72652072656c656173652074696d6554696d654c6f636b57616c6c65743a20616d6f756e74206d7573742062652067726561746572207468616e207a65726f43757272656e742074696d65206973206265666f72652072656c656173652074696d65416464726573733a20696e73756666696369656e742062616c616e636520666f722063616c6c54696d654c6f636b57616c6c65743a20546f6b656e20616c6c6f77616e636520746f6f206c6f775361666545524332303a204552433230206f7065726174696f6e20646964206e6f742073756363656564546f6b656e54696d656c6f636b3a2072656c656173652074696d65206973206265666f72652063757272656e742074696d65546f6b656e54696d656c6f636b3a206e6f20746f6b656e7320746f2072656c65617365a26469706673582212208d915226136c6ad4684b3f9f4a725b93d1f261065812961688dfd6b1af47792664736f6c634300060c0033",
  "immutableReferences": {},
  "source": "pragma solidity ^0.6.0;\r\n\r\nimport \"@openzeppelin/contracts/token/ERC20/SafeERC20.sol\";\r\nimport \"@openzeppelin/contracts/token/ERC20/IERC20.sol\";\r\n\r\ncontract TimeLockWallet {\r\n    using SafeERC20 for IERC20;\r\n\r\n    // ERC20 basic token contract being held\r\n    IERC20 private _token;\r\n\r\n    // beneficiary of tokens after they are released\r\n    address private _beneficiary;\r\n\r\n    // timestamp when token release is enabled\r\n    uint256 private _releaseTime;\r\n\r\n    address private _creator;\r\n\r\n    uint256 private _createdTime;\r\n\r\n    modifier onlyOwner {\r\n        require(msg.sender == _beneficiary);\r\n        _;\r\n    }\r\n\r\n    function init(\r\n        IERC20 token_,\r\n        address beneficiary_,\r\n        address creator_,\r\n        uint256 createdTime_,\r\n        uint256 releaseTime_\r\n    ) external {\r\n        // solhint-disable-next-line not-rely-on-time\r\n        require(\r\n            releaseTime_ > block.timestamp,\r\n            \"TokenTimelock: release time is before current time\"\r\n        );\r\n        _token = token_;\r\n        _beneficiary = beneficiary_;\r\n        _creator = creator_;\r\n        _createdTime = createdTime_;\r\n        _releaseTime = releaseTime_;\r\n    }\r\n\r\n    /**\r\n     * @return the token being held.\r\n     */\r\n    function token() public view virtual returns (IERC20) {\r\n        return _token;\r\n    }\r\n\r\n    /**\r\n     * @return the beneficiary of the tokens.\r\n     */\r\n    function beneficiary() public view virtual returns (address) {\r\n        return _beneficiary;\r\n    }\r\n\r\n    function creator() public view virtual returns (address) {\r\n        return _creator;\r\n    }\r\n\r\n    function createdTime() public view virtual returns (uint256) {\r\n        return _createdTime;\r\n    }\r\n\r\n    /**\r\n     * @return the time when the tokens are released.\r\n     */\r\n    function releaseTime() public view virtual returns (uint256) {\r\n        return _releaseTime;\r\n    }\r\n\r\n    \r\n    // ==================================================\r\n    // ===== BẠN SẼ THÊM HÀM MỚI VÀO ĐÂY (HOẶC GẦN ĐÂY) =====\r\n    // ==================================================\r\n    /**\r\n     * @notice Allows an external account (e.g., the creator or any approved address)\r\n     * to deposit ERC20 tokens into this timelock wallet.\r\n     * The caller must have approved this contract to spend tokens on their behalf.\r\n     * @param amount The amount of tokens to deposit.\r\n     */\r\n    function depositTokens(uint256 amount) external {\r\n        require(address(_token) != address(0), \"TimeLockWallet: token not set\"); // Đảm bảo token đã được init\r\n        require(amount > 0, \"TimeLockWallet: amount must be greater than zero\");\r\n        // Người gọi (msg.sender) phải approve cho contract này (address(this)) được quyền rút 'amount' token từ họ.\r\n        // Hàm token() trả về instance IERC20 của _token.\r\n        require(token().allowance(msg.sender, address(this)) >= amount, \"TimeLockWallet: Token allowance too low\");\r\n        token().safeTransferFrom(msg.sender, address(this), amount);\r\n    }\r\n    // ==================================================\r\n    // ==================================================\r\n\r\n    /**\r\n     * @notice Transfers tokens held by timelock to beneficiary.\r\n     */\r\n    function releaseToken() public virtual onlyOwner {\r\n        // solhint-disable-next-line not-rely-on-time\r\n        require(\r\n            block.timestamp >= releaseTime(),\r\n            \"TokenTimelock: current time is before release time\"\r\n        );\r\n\r\n        uint256 amount = token().balanceOf(address(this));\r\n        require(amount > 0, \"TokenTimelock: no tokens to release\");\r\n\r\n        token().safeTransfer(beneficiary(), amount);\r\n    }\r\n\r\n    function depositEther() public payable {}\r\n\r\n    function getEtherBalance() public view returns (uint256) {\r\n        return address(this).balance;\r\n    }\r\n\r\n    function releaseEther() public onlyOwner {\r\n        // solhint-disable-next-line not-rely-on-time\r\n        require(\r\n            block.timestamp >= releaseTime(),\r\n            \"Current time is before release time\"\r\n        );\r\n\r\n        uint256 amount = address(this).balance;\r\n        require(amount > 0, \"No Ethers to release\");\r\n\r\n        payable(msg.sender).transfer(amount);\r\n    }\r\n\r\n    function getWalletDetails()\r\n        public\r\n        view\r\n        returns (\r\n            address,\r\n            address,\r\n            uint256,\r\n            uint256,\r\n            uint256,\r\n            uint256\r\n        )\r\n    {\r\n        return (\r\n            _beneficiary,\r\n            _creator,\r\n            _releaseTime,\r\n            _createdTime,\r\n            address(this).balance,\r\n            token().balanceOf(address(this))\r\n        );\r\n    }\r\n}\r\n",
  "sourcePath": "C:\\Users\\Admin\\Documents\\Blockchain\\time-lock-eth-wallet\\contracts\\TimeLockWallet.sol",
  "compiler": {
    "name": "solc",
    "version": "0.6.12+commit.27d51765.Emscripten.clang"
  },
  "schemaVersion": "3.4.16",
  "updatedAt": "2025-06-14T19:34:40.088Z",
  "networkType": "ethereum",
  "devdoc": {
    "kind": "dev",
    "methods": {
      "beneficiary()": {
        "returns": {
          "_0": "the beneficiary of the tokens."
        }
      },
      "depositTokens(uint256)": {
        "params": {
          "amount": "The amount of tokens to deposit."
        }
      },
      "releaseTime()": {
        "returns": {
          "_0": "the time when the tokens are released."
        }
      },
      "token()": {
        "returns": {
          "_0": "the token being held."
        }
      }
    },
    "version": 1
  },
  "userdoc": {
    "kind": "user",
    "methods": {
      "depositTokens(uint256)": {
        "notice": "Allows an external account (e.g., the creator or any approved address) to deposit ERC20 tokens into this timelock wallet. The caller must have approved this contract to spend tokens on their behalf."
      },
      "releaseToken()": {
        "notice": "Transfers tokens held by timelock to beneficiary."
      }
    },
    "version": 1
  }
}